{
  "config" : {
    "chainId" : 1338,
    "berlinBlock" : 0,
    "contractSizeLimit": 2147483647,
    "qbft" : {
      "blockperiodseconds" : 20,
      "epochlength" : 60,
      "requesttimeoutseconds" : 4,
      "blockRewardWei": "0x0",
      "validatorselectionmode": "blockheader",
      "validators": [
        "0x2d4e045a52bcf751469f13b50edf7a62bae3490c",
        "0x4f50611e368b3f19ac1f67acaac0b201c75ef463",
        "0x35b81b5c1eef16940d72077ba5e8cd075ae5609e",
        "0x3a7d8b2c365bf3653005e05ed5ccf04bb6c5249e"
      ]
    }
  },
  "nonce" : "0x0",
  "timestamp" : "0x58ee40ba",
  "gasLimit" : "0x1fffffffffffff",
  "difficulty" : "0x1",
  "mixHash" : "0x63746963616c2062797a616e74696e65206661756c7420746f6c6572616e6365",
  "coinbase" : "0x0000000000000000000000000000000000000000",
  "alloc" : {
    "fe3b557e8fb62b89f4916b721be55ceb828dbd73" : {
      "privateKey" : "8f2a55949038a9610f50fb23b5883af3b4ecb3c3bb792cbcefbd1542c692be63",
      "comment" : "private key and this comment are ignored.  In a real chain, the private key should NOT be stored",
      "balance" : "0xad78ebc5ac6200000"
    },
    "627306090abaB3A6e1400e9345bC60c78a8BEf57" : {
      "privateKey" : "c87509a1c067bbde78beb793e6fa76530b6382a4c0241e5e4a9ec0a0f44dc0d3",
      "comment" : "private key and this comment are ignored.  In a real chain, the private key should NOT be stored",
      "balance" : "90000000000000000000000"
    },
    "f17f52151EbEF6C7334FAD080c5704D77216b732" : {
      "privateKey" : "ae6ae8e5ccbfb04590405997ee2d52d2b330726137b875053c36d94e974d162f",
      "comment" : "private key and this comment are ignored.  In a real chain, the private key should NOT be stored",
      "balance" : "90000000000000000000000"
    }
  },
  "extraData" : "0xf87aa00000000000000000000000000000000000000000000000000000000000000000f854942d4e045a52bcf751469f13b50edf7a62bae3490c944f50611e368b3f19ac1f67acaac0b201c75ef4639435b81b5c1eef16940d72077ba5e8cd075ae5609e943a7d8b2c365bf3653005e05ed5ccf04bb6c5249ec080c0"
}